:0400000002001132B7
:03000B0002050FDC
:10006A00751000751100751200787876FF78797628
:10007A00FF787A76FF787B76FF787C76FF787D76D4
:10008A00FF787E76FF787F76FF788076FF788176B4
:10009A00FF788276FF788376FF788476FF78857694
:1000AA00FF788676FF788776FF788876FF78897674
:1000BA00FF788A76FF788B76FF788C76FF788D7654
:1000CA00FF788E76FF788F76FF789076FF78917634
:1000DA00FF789276FF789376FF7894760078957613
:0500EA0000C200C2018C
:03013A0002000EB2
:03000E00020542A6
:10013D00E412090EA312090EAD66AE67AF688D828B
:10014D008E838FF012090EA312090EAD69AE6AAF40
:10015D006B8D828E838FF0742412090EAD6CAE6D93
:10016D00AF6E8D828E838FF0E412090EA312090EED
:10017D00C200AD75AE76AF778D828E838FF0E412AF
:10018D00090EA312090EAD6FAE70AF718D828E8305
:10019D008FF01412090EA312090EAD72AE73AF7467
:1001AD008D828E838FF012090EA312090E75120027
:1001BD0022AF82AE66EE6032EE2567FBE43568FC59
:1001CD00AD698E017A0019B9FF011AE92567F9EABF
:1001DD003568F8AA69898288838AF0120A518B8260
:1001ED008C838DF012090E1E80CBAC67AD68AE69A5
:1001FD008C828D838EF0EF02090E85821F85832000
:10020D0085F0217878E6FC24F650030202D185169C
:10021D00228517238518248522828523838524F042
:10022D00120A51FBBB2440851F828520838521F056
:10023D00120A51F566A3120A51F56790000AC0041F
:10024D00120929AA82AB83D0048C067F00EE2AFA0C
:10025D00EF3BFB851F828520838521F0EA12090E75
:10026D00A3EB12090E05128522828523838524F0C6
:10027D00120A51FFBF240122AD13AE14AF158D82AA
:10028D008E838FF0120A51F566A3120A51F567900D
:10029D00000AC007C006C005120929858222858380
:1002AD0023D005D006D007787886037A00EB252277
:1002BD00FBEA3523FA8D828E838FF0EB12090EA3A4
:1002CD00EA02090EE4BC0D0104FF601AE512701676
:1002DD00AB19AD1AAE1B8B828D838EF07401120992
:1002ED000EA3E402090EBC0C004026EC24F04021C4
:1002FD00E512601DAB16AD17AE188B828D838EF097
:10030D00120A51FABA240A8B828D838EF0EC0209FF
:10031D000EEF602BAD16AE17AF188D828E838FF05A
:10032D00120A51FDBD24028016AD1CAE1DAF1E8DEF
:10033D00828E838FF0740112090EA3E402090EBCA4
:10034D000B02D20022AE82AF83740CB52702801847
:10035D00740DB52702806A740EB527030204287444
:10036D000FB5270302048C22AB2CAC2DAD2EC3E4AC
:10037D009528F582E49529F5838E668F67C005C0B3
:10038D0004C00312092985822F858330C3E4952A81
:10039D00F582E4952BF58385256685266712092957
:1003AD00A882AA83D003D004D005E8252FF8EA351A
:1003BD0030FA8B828C838DF0E812090EA3EA0209C4
:1003CD000EAB2CAC2DAD2EC3E49528F582E495290A
:1003DD00F5838E668F67C005C004C0031209298599
:1003ED00822F858330C3E4952AF582E4952BF5831E
:1003FD00852566852667120929A882AA83D003D090
:10040D0004D005E52FC398F8E5309AFA8B828C83DA
:10041D008DF0E812090EA3EA02090EAB2CAC2DAD3E
:10042D002EC3E49528F582E49529F5838E668F67B2
:10043D00C005C004C003120929A982AA83C3E4958B
:10044D002AF582E4952BF583852566852667C002FE
:10045D00C001120929858266858367D001D0028982
:10046D00828A83120929A982AA83D003D004D005D8
:10047D008B828C838DF0E912090EA3EA02090EAB73
:10048D002CAC2DAD2EC3E49528F582E49529F5838A
:10049D008E668F67C005C004C003120929AE82AFF6
:1004AD0083D003D004D005C3E4952AF582E4952BBF
:1004BD00F583852566852667C007C006C005C0047F
:1004CD00C003120929858266858367D003D004D0C5
:1004DD0005D006D0078E828F83C005C004C00312DD
:1004ED000AA3AE82AF83D003D004D0058B828C8358
:1004FD008DF0EE12090EA3EF02090E75A88A75890B
:10050D000122C0E0C0D0758C3C758AB00511741401
:10051D00B51109D201C28DC28C751100D0D0D0E0B9
:10052D00327510007F00BF08005009EF2478F8766F
:10053D00FF0F80F222E4F531F532F533F534F53560
:10054D00F5367537247538FF7539FF753AFF753BEC
:10055D00FFF53CF53D120508D28C1209BCE582FF72
:10056D0024F0500302074B20010302074BBF0A344E
:10057D007894E6248AF987067D00BD6400501A78C8
:10058D009586608E6190008075F040C006C00512A2
:10059D000867D005D0060D80E17895EE26F67894A3
:1005AD000602074BE5102510F5104310017567780D
:1005BD007568007569407566078F821201BE7513E7
:1005CD00337514007515407516377517007518407D
:1005DD00751938751A00751B40751C3A751D007517
:1005ED001E4090003175F0401202072000030207F3
:1005FD0049752C35752D00752E408533258534268E
:10060D00853727853828853929853A2A853B2B85D5
:10061D003182853283120352E53630E711C3E495FA
:10062D0035F535E49536F536753C01753D00120509
:10063D002E75660A756700853582853683120A6DBB
:10064D007567807568007569407566091201BE751C
:10065D00660A756700853582853683120A6D756762
:10066D00787568007569407566071201BE75660A72
:10067D00756700853582853683120AA38582358597
:10068D008336E5102510F510431001E5354536701C
:10069D00A07401B53C0614B53D028002802D75672E
:1006AD008075680075694075660975820D1201BE09
:1006BD0075677875680075694075660775820D12E6
:1006CD0001BEE5102510F5104310018510821208AA
:1006DD00D175678A7568007569407566091201BE26
:1006ED007F00BF6400501385105B90007875F0405B
:1006FD00C0071207DCD0070F80E812052E75663390
:10070D00756700756840756937756A00756B40755A
:10071D006C35756D00756E40756F3875700075713F
:10072D004075723A75730075744075753C75760039
:10073D0075774090003175F04012013DC201851072
:0D074D005790007875F04012076C020565AA
:1000EF00753E07753F0675400575410475420375EA
:1000FF0043027544017545007546C07547F975484B
:10010F00A47549B0754A99754B92754C82754DF827
:10011F00754E80754F9075508875518375528875DF
:0B012F0053BF7554897555A17556FF2C
:10075A00AE82AF838E048F051EBEFF011FEC4D7063
:10076A00F32285825885835985F05A7C00BC08009B
:10077A00505FEC243EF987908CF005F07A017B00FB
:10078A008006EA2AFAEB33FBD5F0F7AE577F00EE84
:10079A005202EF5203C3E49A74808BF063F080959F
:1007AA00F0501CEC2558FDE43559FEAF5A8D828E67
:1007BA00838FF0120A512446F9E7F4F5A08005E583
:1007CA0056F4F5A0900118C00412075AD0040C8000
:1007DA009C2285825C85835D85F05E855B8212083A
:1007EA00D1E58214F55F7B00BB0800506FEB243E15
:1007FA00F987908BF005F07A017C008006EA2AFAE4
:10080A00EC33FCD5F0F7AE5B7F00EE5202EF5204F8
:10081A00C3E49A74808CF063F08095F0502BAC5F3F
:10082A007F008B057E00ECC39DFCEF9EFFEC255CF0
:10083A00FCEF355DFFAE5E8C828F838EF0120A511B
:10084A002446F9E7F4F5A08005E556F4F5A09001F1
:10085A0018C00312075AD0030B0207F222858262DC
:10086A0085836385F06475650074F825654057E5EE
:10087A0065243EF98790C3E5659561503AAA607B85
:10088A0000AE617F001EBEFF011FAC657D00EEC396
:10089A009CFEEF9DFFEE2AFAEF3BFBEA2562FAEB9C
:1008AA003563FBAF648A828B838FF0120A51244628
:1008BA00F9E7F4F5A08005E556F4F5A090011812C1
:1008CA00075A056580A322AF827E007D00BD08001D
:1008DA00502F8DF005F07B017C008006EB2BFBECA2
:1008EA0033FCD5F0F78F017A00E95203EA5204C3C8
:1008FA00E49B74808CF063F08095F050010E0D80BB
:04090A00CC8E8222EB
:06004000E478FFF6D8FD94
:10001E007900E94400601B7A00900ADF780175A030
:10002E0000E493F2A308B8000205A0D9F4DAF27541
:02003E00A0FF21
:10090E0020F71130F6138883A88220F509F6A88304
:10091E007583002280FEF280F5F022E5828566F076
:10092E00A4C582C0F08567F0A4D0F025F0C58385FC
:10093E0066F0A42583F58322E566456760467A0155
:10094E00E56625E0F566E567334012F567E58295C5
:10095E0066E583956740030A80E6C3E56713F5678E
:10096E00E56613F566C3E5829566F5F0E583956752
:10097E004005F58385F082C3E56713F567E56613D9
:05098E00F566DAE1222C
:100046007800E84400600A790175A000E4F309D855
:10005600FC7800E84400600C7900900001E4F0A30D
:04006600D8FCD9FAEF
:100993007A10E4FBFCE58225E0F582E58333F583F9
:1009A300EB33FBEC33FCEB9566F5F0EC9567400617
:1009B300FCABF0438201DADD227580FF75660C75AE
:1009C3006708756804756900756A0D756B09756C40
:1009D30005756D01756E0E756F0A7570067571027A
:1009E30075720F75730B7574077575037F008F76BA
:1009F30074FC257640548576F005F0740180022559
:100A0300E0D5F0FBF4F5807D008D7774FC2577400D
:100A1300338577F005F07A107B008006EA2AFAEB3B
:100A230033FBD5F0F7AC807E00EC5202EE5203EAC2
:100A33004B700BEF2F25E024662DF9878222057773
:0E0A4300AD7780C70576AF7680A67582FF225C
:0D001100758195120ADBE582600302000E86
:100A510020F71430F6148883A88220F507E6A883CE
:100A610075830022E280F7E49322E022C2D5E58378
:100A710030E70DD2D5E4C39582F582E49583F58301
:100A8100E56730E70BE4C39566F566E49567F567BE
:100A910012094630D50BE4C39582F582E49583F5BE
:100AA1008322C2D5E58330E70DD2D5E4C39582F523
:100AB10082E49583F583E56730E70DB2D5E4C3950C
:100AC10066F566E49567F56712099330D50BE4C3C3
:0E0AD1009582F582E49583F5832275820022DA
:00000001FF
