:0400000002001132B7
:03000B000204C923
:20006A00751000751100751200787B76FF7883760078B5760078E7760078E87600C200C239
:01008A000174
:0300D60002000E17
:03000E000204E801
:2000D900E41208B9A31208B9AD69AE6AAF6B8D828E838FF01208B9A31208B9AD6CAE6DAFC7
:2000F9006E8D828E838FF074241208B9AD6FAE70AF718D828E838FF0E41208B9A31208B949
:20011900C200AD78AE79AF7A8D828E838FF0E41208B9A31208B9AD72AE73AF748D828E8340
:200139008FF0141208B9A31208B9AD75AE76AF778D828E838FF01208B9A31208B9751200EF
:2001590022AF827E07EE6012EE247BF98E05ED14247BF88605A7051E80EB787BA60722AF6C
:20017900827E31EE6032EE2569FBE4356AFCAD6B8E017A0019B9FF011AE92569F9EA356AB9
:20019900F8AA6B898288838AF01209FC8B828C838DF01208B91E80CBAC69AD6AAE6B8C826A
:2001B9008D838EF0EF0208B985821F85832085F021787BE6FC24F6500302028B85162285EF
:2001D90017238518248522828523838524F01209FCFBBB2440851F828520838521F01209EE
:2001F900FCF569A31209FCF56A90000AC0041208D4AA82AB83D0048C067F00EE2AFAEF3BAC
:20021900FB851F828520838521F0EA1208B9A3EB1208B905128522828523838524F01209A9
:20023900FCFFBF240122AD13AE14AF158D828E838FF01209FCF569A31209FCF56A90000A97
:20025900C007C006C0051208D4858222858323D005D006D007787B86037A00EB2522FBEA62
:200279003523FA8D828E838FF0EB1208B9A3EA0208B9E4BC0D0104FF601AE5127016AB19FA
:20029900AD1AAE1B8B828D838EF074011208B9A3E40208B9BC0C004026EC24F04021E51202
:2002B900601DAB16AD17AE188B828D838EF01209FCFABA240A8B828D838EF0EC0208B9EF90
:2002D900602BAD16AE17AF188D828E838FF01209FCFDBD24028016AD1CAE1DAF1E8D828E01
:2002F900838FF074011208B9A3E40208B9BC0B02D20022AE82AF83740CB527028018740DBB
:20031900B52702806A740EB527030203E2740FB5270302044622AB2CAC2DAD2EC3E49528F5
:20033900F582E49529F5838E698F6AC005C004C0031208D485822F858330C3E4952AF5829E
:20035900E4952BF58385256985266A1208D4A882AA83D003D004D005E8252FF8EA3530FA02
:200379008B828C838DF0E81208B9A3EA0208B9AB2CAC2DAD2EC3E49528F582E49529F58340
:200399008E698F6AC005C004C0031208D485822F858330C3E4952AF582E4952BF583852509
:2003B9006985266A1208D4A882AA83D003D004D005E52FC398F8E5309AFA8B828C838DF03C
:2003D900E81208B9A3EA0208B9AB2CAC2DAD2EC3E49528F582E49529F5838E698F6AC005C4
:2003F900C004C0031208D4A982AA83C3E4952AF582E4952BF58385256985266AC002C00173
:200419001208D485826985836AD001D00289828A831208D4A982AA83D003D004D0058B8269
:200439008C838DF0E91208B9A3EA0208B9AB2CAC2DAD2EC3E49528F582E49529F5838E6994
:200459008F6AC005C004C0031208D4AE82AF83D003D004D005C3E4952AF582E4952BF58379
:2004790085256985266AC007C006C005C004C0031208D485826985836AD003D004D005D046
:2004990006D0078E828F83C005C004C003120A4EAE82AF83D003D004D0058B828C838DF017
:2004B900EE1208B9A3EF0208B975A88A75890122C0E0C0D0758C3C758AB005117414B511C5
:2004D90009D201C28DC28C751100D0D0D0E032E4F531F532F533F534F535F5367537247566
:2004F90038FF7539FF753AFF753BFFF53CF53D1204C2D28C120967E582FF24F050030206B2
:20051900E92001030206E9BF0A3C78E7E624B5F9878212087CAE827D00BD6400501E78E86D
:20053900EE26F56178E8866090008375F040C006C005120805D005D0060D80DD78E8A6066F
:2005590078E7060206E9E5102510F5104310018F8212015A7513337514007515407516375B
:20057900751700751840751938751A00751B40751C3A751D00751E4090003175F04012013B
:20059900C12000030206E7752C35752D00752E408533258534268537278538288539298524
:2005B9003A2A853B2B85318285328312030CE53630E711C3E49535F535E49536F536753CD7
:2005D90001753D007510007F00BF08005009EF247BF876FF0F80F275690A756A00853582AC
:2005F900853683120A18756983756A00756B4012017875690A756A00853582853683120A28
:200619001812015A75690A756A00853582853683120A4E858235858336E5102510F51043A5
:200639001001E535453670AF7401B53C0614B53D028002801E756983756A00756B407582F1
:200659000D12017875820D12015AE5102510F5104310017569B5756A00756B40851082123A
:2006790001787F00BF6400501385105B90007B75F040C00712077AD0070F80E87F00BF0855
:20069900005009EF247BF876FF0F80F2751000756933756A00756B40756C37756D00756EFA
:2006B90040756F3575700075714075723875730075744075753A75760075774075783C75B4
:1F06D9007900757A4090003175F0401200D9C20185105790007B75F04012070A02050B75
:20008B00753E07753F067540057541047542037543027544017545007546C07547F9754898
:2000AB00A47549B0754A99754B92754C82754DF8754E80754F907550887551837552A7756C
:0B00CB0053A175548675558E7556FFC5
:2006F800AE82AF838E048F051EBEFF011FEC4D70F32285825885835985F05A7C00BC0800D2
:20071800505FEC243EF987908CF005F07A017B008006EA2AFAEB33FBD5F0F7AE577F00EE72
:200738005202EF5203C3E49A74808BF063F08095F0501CEC2558FDE43559FEAF5A8D828E19
:20075800838FF01209FC2446F9E7F4F5A08005E556F4F5A0900118C0041206F8D0040C806F
:200778009C2285825C85835D85F05E855B8212087CE58214F55F7B00BB0800506FEB243EF7
:20079800F987908BF005F07A017C008006EA2AFAEC33FCD5F0F7AE5B7F00EE5202EF520450
:2007B800C3E49A74808CF063F08095F0502BAC5F7F008B057E00ECC39DFCEF9EFFEC255CC4
:2007D800FCEF355DFFAE5E8C828F838EF01209FC2446F9E7F4F5A08005E556F4F5A0900117
:2007F80018C0031206F8D0030B0207902285826285836385F0647C00BC08005066EC243E6C
:20081800F98790AA617B008560658B66EAC39565FAEB9566FB8C67756800C3E5679AE568A7
:2008380064808BF063F08095F05026E5672565FAE5683566FBEA2562FAEB3563FBAF648A3A
:20085800828B838FF01209FC2446F9E7F4F5A08005E556F4F5A0900118C0041206F8D004ED
:200878000C809522AF827E007D00BD0800502F8DF005F07B017C008006EB2BFBEC33FCD5BC
:20089800F0F78F017A00E95203EA5204C3E49B74808CF063F08095F050010E0D80CC8E82FF
:0108B800221D
:06004000E478FFF6D8FD94
:20001E007900E94400601B7A00900A8A780175A000E493F2A308B8000205A0D9F4DAF275F4
:02003E00A0FF21
:1B08B90020F71130F6138883A88220F509F6A8837583002280FEF280F5F0223E
:1D08D400E5828569F0A4C582C0F0856AF0A4D0F025F0C5838569F0A42583F58322C3
:2008F100E569456A60467A01E56925E0F569E56A334012F56AE5829569E583956A40030ACC
:2009110080E6C3E56A13F56AE56913F569C3E5829569F5F0E583956A4005F58385F082C332
:0D093100E56A13F56AE56913F569DAE1225C
:200046007800E84400600A790175A000E4F309D8FC7800E84400600C7900900001E4F0A3B8
:04006600D8FCD9FAEF
:20093E007A10E4FBFCE58225E0F582E58333F583EB33FBEC33FCEB9569F5F0EC956A40060B
:09095E00FCABF0438201DADD225A
:200967007580FF75690C756A08756B04756C00756D0D756E09756F0575700175710E757261
:200987000A75730675740275750F75760B7577077578037F008F7974FC257940548579F084
:2009A70005F07401800225E0D5F0FBF4F5807D008D7A74FC257A4033857AF005F07A107B27
:2009C700008006EA2AFAEB33FBD5F0F7AC807E00EC5202EE5203EA4B700BEF2F25E024691A
:1509E7002DF9878222057AAD7A80C70579AF7980A67582FF22D9
:0D0011007581E8120A86E582600302000E88
:1C09FC0020F71430F6148883A88220F507E6A88375830022E280F7E49322E0220A
:200A1800C2D5E58330E70DD2D5E4C39582F582E49583F583E56A30E70BE4C39569F569E4F3
:160A3800956AF56A1208F130D50BE4C39582F582E49583F5832264
:200A4E00C2D5E58330E70DD2D5E4C39582F582E49583F583E56A30E70DB2D5E4C39569F581
:180A6E0069E4956AF56A12093E30D50BE4C39582F582E49583F5832291
:040A86007582002253
:00000001FF
