:0400000002002132A7
:03000B000204CF1D
:0100130032BA
:03001B000204F5E7
:10007A00751800751A00787376FF787B7600787C9D
:10008A0076FF788676FF78907600087600789A76FA
:10009A0000789F760078A0760078A1760078A2761C
:0500AA0000C200C201CC
:0300FA0002001EE3
:03001E00020520B8
:1000FD00E4120A2CA3120A2CAD61AE62AF638D829D
:10010D008E838FF0120A2CA3120A2CAD64AE65AF4C
:10011D00668D828E838FF07424120A2CAD67AE68C3
:10012D00AF698D828E838FF0E4120A2CA3120A2CF4
:10013D00C200AD70AE71AF728D828E838FF0E412FE
:10014D000A2CA3120A2CAD6AAE6BAF6C8D828E8316
:10015D008FF014120A2CA3120A2CAD6DAE6EAF6F78
:10016D008D828E838FF0120A2CA3120A2C751A0021
:10017D0022AF82AE61EE6032EE2562FBE43563FCA8
:10018D00AD648E017A0019B9FF011AE92562F9EA09
:10019D003563F8AA64898288838AF0120B6F8B828B
:1001AD008C838DF0120A2C1E80CBAC62AD63AE64D5
:1001BD008C828D838EF0EF020A2C85822785832811
:1001CD0085F0297873E6FC24F65003020291851E12
:1001DD002A851F2B85202C852A82852B83852CF043
:1001ED00120B6FFBBB24408527828528838529F060
:1001FD00120B6FF561A3120B6FF56290000AC0042C
:10020D00120A47AA82AB83D0048C067F00EE2AFA2D
:10021D00EF3BFB8527828528838529F0EA120A2C7E
:10022D00A3EB120A2C051A852A82852B83852CF0C7
:10023D00120B6FFFBF240122AD1BAE1CAF1D8D82B3
:10024D008E838FF0120B6FF561A3120B6FF5629019
:10025D00000AC007C006C005120A4785822A858399
:10026D002BD005D006D007787386037A00EB252AAC
:10027D00FBEA352BFA8D828E838FF0EB120A2CA3BD
:10028D00EA020A2CE4BC0D0104FF601AE51A70168F
:10029D00AB21AD22AE238B828D838EF07401120AB9
:1002AD002CA3E4020A2CBC0C004026EC24F04021C7
:1002BD00E51A601DAB1EAD1FAE208B828D838EF0B7
:1002CD00120B6FFABA240A8B828D838EF0EC020A20
:1002DD002CEF602BAD1EAE1FAF208D828E838FF065
:1002ED00120B6FFDBD24028016AD24AE25AF268DF9
:1002FD00828E838FF07401120A2CA3E4020A2CBCA7
:10030D000B02D20022AE82AF83740CB52F0280187F
:10031D00740DB52F02806A740EB52F030203E874B5
:10032D000FB52F0302044C22AB34AC35AD36C3E40C
:10033D009530F582E49531F5838E618F62C005C0ED
:10034D0004C003120A47858237858338C3E495328A
:10035D00F582E49533F583852D61852E62120A476A
:10036D00A882AA83D003D004D005E82537F8EA3552
:10037D0038FA8B828C838DF0E8120A2CA3EA020ADC
:10038D002CAB34AC35AD36C3E49530F582E4953104
:10039D00F5838E618F62C005C004C003120A4785C4
:1003AD008237858338C3E49532F582E49533F5833E
:1003BD00852D61852E62120A47A882AA83D003D0AB
:1003CD0004D005E537C398F8E5389AFA8B828C830B
:1003DD008DF0E8120A2CA3EA020A2CAB34AC35AD31
:1003ED0036C3E49530F582E49531F5838E618F62E5
:1003FD00C005C004C003120A47A982AA83C3E495AD
:10040D0032F582E49533F583852D61852E62C00228
:10041D00C001120A47858261858362D001D00289AD
:10042D00828A83120A47A982AA83D003D004D005F9
:10043D008B828C838DF0E9120A2CA3EA020A2CAB75
:10044D0034AC35AD36C3E49530F582E49531F583A2
:10045D008E618F62C005C004C003120A47AE82AF21
:10046D0083D003D004D005C3E49532F582E49533EF
:10047D00F583852D61852E62C007C006C005C004B9
:10048D00C003120A47858261858362D003D004D0F0
:10049D0005D006D0078E828F83C005C004C003121D
:1004AD000BC1AE82AF83D003D004D0058B828C8379
:1004BD008DF0EE120A2CA3EF020A2C75A88A75890D
:1004CD000122C0E0C0D0758C3C758AB0051874143B
:1004DD00B51809D201C28DC28C751800D0D0D0E0EC
:1004ED003275A88A75891022C0D075D010758D3CD3
:1004FD00758BB078A27601C28FC28ED0D032787B48
:10050D0076007F00BF08005009EF2473F876FF0FC7
:10051D0080F22278A3E4F608F678A5F608F678A717
:10052D00F608F678A9762478AA76FF0876FF78ACD7
:10053D0076FF0876FF78AEF608F61204EE1204C8C0
:10054D00D28C120ADAE582F51924F05003020868FC
:10055D00740AB51933D28E78A0E62486F987077E02
:10056D0000BE6400501A78A1865B8F5C90007C758C
:10057D00F040C007C006120985D006D0070E80E1F5
:10058D0078A1EF26F678A00678A2B60102800302C4
:10059D00068D7F00BF08005036787B8606787BEE8F
:1005AD002EF6789F86061EEE2E2490F987065306AA
:1005BD0001787B86E04E787BF6870509870619EE74
:1005CD00C313CD13CDFEA70509A706190F80C57856
:1005DD009FE614249AF98707BF0153787BE6F4F65A
:1005ED00787B8607787BEF04F67F00BF08005024E8
:1005FD00787B86E05401F5827562737563007564CE
:10060D0040756107C00712017ED007787BE6C313E2
:10061D00F60F80D77F00BF640050587556FF9000CD
:10062D007375F040C0071208FAD0070F80E87F00FD
:10063D00BF08005024787B86E05401F58275627303
:10064D00756300756440756107C00712017ED007A0
:10065D00787BE6C313F60F80D77F00BF640050137D
:10066D007552FF90007375F040C00712088AD007CD
:10067D000F80E878A27600789F1612050B020868A5
:10068D00200103020868787B8607787BEF2FF678C8
:10069D007BE64401F67562737563007564407561A0
:1006AD000785198212017E751BA5751C00751D40ED
:1006BD00751EA9751F007520407521AA752200753C
:1006CD0023407524AC7525007526409000A375F068
:1006DD00401201C72000030208667534A775350066
:1006ED0075364078A5862D08862E78A9862F78AA8E
:1006FD00863008863178AC863208863378A38682B8
:10070D0008868312031278A8E630E71978A7C3E4A8
:10071D0096F608E496F678AE7601087600789FE6B0
:10072D00249AF87601789FE625E02490F879A7E7DA
:10073D00F60809E7F6789F0612050B75610A7562D2
:10074D000078A78682088683120B8B75627C756391
:10075D000075644075610912017E75610A7562004C
:10076D0078A78682088683120B8B7562737563007A
:10077D0075644075610712017E75610A75620078B6
:10078D00A78682088683120BC1E5828583F078A740
:10079D00F608A6F0787B8607787BEF2FF6787BE658
:1007AD004401F678A7E60846709178AEB601370891
:1007BD00B6003375627C75630075644075610975AB
:1007CD00820D12017E7562737563007564407561EB
:1007DD000775820D12017E787B8607787BEF2FF6E9
:1007ED00787BE64401F6787B86821209EF75628686
:1007FD0075630075644075610912017E7F00BF64E9
:10080D00005014787B865690007375F040C0071227
:10081D0008FAD0070F80E712050B7561A575620008
:10082D007563407564A97565007566407567A77534
:10083D006800756940756AAA756B00756C40756DB9
:10084D00AC756E00756F407570AE75710075724048
:10085D009000A375F0401200FDC201787B86529086
:0B086D00007375F04012088A02054D70
:1000AF00753907753A06753B05753C04753D037543
:1000BF003E02753F017540007541C07542F97543A9
:1000CF00A47544B07545997546927547827548F881
:1000DF00754980754A90754B88754C83754D887539
:0B00EF004EBF754F897550A17551FF81
:10087800AE82AF838E048F051EBEFF011FEC4D7044
:10088800F32285825385835485F0557C00BC08008B
:10089800505FEC2439F987908CF005F07A017B00E1
:1008A8008006EA2AFAEB33FBD5F0F7AE527F00EE6A
:1008B8005202EF5203C3E49A74808BF063F0809580
:1008C800F0501CEC2553FDE43554FEAF558D828E57
:1008D800838FF0120B6F2441F9E7F4F5A08005E54A
:1008E80051F4F5A0900118C004120878D0040C80C7
:1008F8009C2285825785835885F05985568212092E
:10090800EFE58214F55A7B00BB0800506FEB2439E1
:10091800F987908BF005F07A017C008006EA2AFAC4
:10092800EC33FCD5F0F7AE567F00EE5202EF5204DE
:10093800C3E49A74808CF063F08095F0502BAC5A25
:100948007F008B057E00ECC39DFCEF9EFFEC2557D6
:10095800FCEF3558FFAE598C828F838EF0120B6FE7
:100968002441F9E7F4F5A08005E551F4F5A09001DC
:1009780018C003120878D0030B0209102285825D83
:1009880085835E85F05F75600074F825604057E5E3
:10099800602439F98790C3E560955C503AAA5B7B7F
:1009A80000AE5C7F001EBEFF011FAC607D00EEC381
:1009B8009CFEEF9DFFEE2AFAEF3BFBEA255DFAEB82
:1009C800355EFBAF5F8A828B838FF0120B6F2441F9
:1009D800F9E7F4F5A08005E551F4F5A090011812A7
:1009E8000878056080A322AF827E007D00BD0800E4
:1009F800502F8DF005F07B017C008006EB2BFBEC83
:100A080033FCD5F0F78F017A00E95203EA5204C3A8
:100A1800E49B74808CF063F08095F050010E0D809B
:040A2800CC8E8222CC
:06005000E478FFF6D8FD84
:10002E007900E94400601B7A00900BFD780175A001
:10003E0000E493F2A308B8000205A0D9F4DAF27531
:02004E00A0FF11
:100A2C0020F71130F6138883A88220F509F6A883E5
:100A3C007583002280FEF280F5F022E5828561F05C
:100A4C00A4C582C0F08562F0A4D0F025F0C58385E2
:100A5C0061F0A42583F58322E561456260467A0145
:100A6C00E56125E0F561E562334012F562E58295BA
:100A7C0061E583956240030A80E6C3E56213F56283
:100A8C00E56113F561C3E5829561F5F0E583956247
:100A9C004005F58385F082C3E56213F562E56113C9
:050AAC00F561DAE12212
:100056007800E84400600A790175A000E4F309D845
:10006600FC7800E84400600C7900900001E4F0A3FD
:04007600D8FCD9FADF
:100AB1007A10E4FBFCE58225E0F582E58333F583DA
:100AC100EB33FBEC33FCEB9561F5F0EC9562400602
:100AD100FCABF0438201DADD227580FF75610C7594
:100AE100620875630475640075650D75660975673F
:100AF1000575680175690E756A0A756B06756C0274
:100B0100756D0F756E0B756F077570037F008F71B3
:100B110074FC257140548571F005F0740180022543
:100B2100E0D5F0FBF4F5807D008D7274FC257240F8
:100B3100338572F005F07A107B008006EA2AFAEB21
:100B410033FBD5F0F7AC807E00EC5202EE5203EAA3
:100B51004B700BEF2F25E024612DF987822205725E
:0E0B6100AD7280C70571AF7180A67582FF224C
:0D0021007581AF120BF9E582600302001E2D
:100B6F0020F71430F6148883A88220F507E6A883AF
:100B7F0075830022E280F7E49322E022C2D5E58359
:100B8F0030E70DD2D5E4C39582F582E49583F583E2
:100B9F00E56230E70BE4C39561F561E49562F562B8
:100BAF00120A6430D50BE4C39582F582E49583F580
:100BBF008322C2D5E58330E70DD2D5E4C39582F504
:100BCF0082E49583F583E56230E70DB2D5E4C395F2
:100BDF0061F561E49562F562120AB130D50BE4C399
:0E0BEF009582F582E49583F5832275820022BB
:00000001FF
